{
  "contractName": "Fundraiser",
  "abi": [
    {
      "inputs": [
        {
          "internalType": "string",
          "name": "_name",
          "type": "string"
        },
        {
          "internalType": "string",
          "name": "_website",
          "type": "string"
        },
        {
          "internalType": "string",
          "name": "_image",
          "type": "string"
        },
        {
          "internalType": "string",
          "name": "_description",
          "type": "string"
        },
        {
          "internalType": "address payable",
          "name": "_beneficiary",
          "type": "address"
        },
        {
          "internalType": "address",
          "name": "_custodian",
          "type": "address"
        }
      ],
      "stateMutability": "nonpayable",
      "type": "constructor"
    },
    {
      "anonymous": false,
      "inputs": [
        {
          "indexed": true,
          "internalType": "address",
          "name": "donor",
          "type": "address"
        },
        {
          "indexed": false,
          "internalType": "uint256",
          "name": "value",
          "type": "uint256"
        }
      ],
      "name": "DonationReceived",
      "type": "event"
    },
    {
      "anonymous": false,
      "inputs": [
        {
          "indexed": true,
          "internalType": "address",
          "name": "previousOwner",
          "type": "address"
        },
        {
          "indexed": true,
          "internalType": "address",
          "name": "newOwner",
          "type": "address"
        }
      ],
      "name": "OwnershipTransferred",
      "type": "event"
    },
    {
      "anonymous": false,
      "inputs": [
        {
          "indexed": false,
          "internalType": "uint256",
          "name": "amount",
          "type": "uint256"
        }
      ],
      "name": "Withdraw",
      "type": "event"
    },
    {
      "stateMutability": "payable",
      "type": "fallback"
    },
    {
      "inputs": [],
      "name": "beneficiary",
      "outputs": [
        {
          "internalType": "address payable",
          "name": "",
          "type": "address"
        }
      ],
      "stateMutability": "view",
      "type": "function"
    },
    {
      "inputs": [],
      "name": "description",
      "outputs": [
        {
          "internalType": "string",
          "name": "",
          "type": "string"
        }
      ],
      "stateMutability": "view",
      "type": "function"
    },
    {
      "inputs": [],
      "name": "donationsCount",
      "outputs": [
        {
          "internalType": "uint256",
          "name": "",
          "type": "uint256"
        }
      ],
      "stateMutability": "view",
      "type": "function"
    },
    {
      "inputs": [],
      "name": "imageURL",
      "outputs": [
        {
          "internalType": "string",
          "name": "",
          "type": "string"
        }
      ],
      "stateMutability": "view",
      "type": "function"
    },
    {
      "inputs": [],
      "name": "name",
      "outputs": [
        {
          "internalType": "string",
          "name": "",
          "type": "string"
        }
      ],
      "stateMutability": "view",
      "type": "function"
    },
    {
      "inputs": [],
      "name": "owner",
      "outputs": [
        {
          "internalType": "address",
          "name": "",
          "type": "address"
        }
      ],
      "stateMutability": "view",
      "type": "function"
    },
    {
      "inputs": [],
      "name": "renounceOwnership",
      "outputs": [],
      "stateMutability": "nonpayable",
      "type": "function"
    },
    {
      "inputs": [],
      "name": "totalDonations",
      "outputs": [
        {
          "internalType": "uint256",
          "name": "",
          "type": "uint256"
        }
      ],
      "stateMutability": "view",
      "type": "function"
    },
    {
      "inputs": [
        {
          "internalType": "address",
          "name": "newOwner",
          "type": "address"
        }
      ],
      "name": "transferOwnership",
      "outputs": [],
      "stateMutability": "nonpayable",
      "type": "function"
    },
    {
      "inputs": [],
      "name": "url",
      "outputs": [
        {
          "internalType": "string",
          "name": "",
          "type": "string"
        }
      ],
      "stateMutability": "view",
      "type": "function"
    },
    {
      "inputs": [
        {
          "internalType": "address payable",
          "name": "_beneficiary",
          "type": "address"
        }
      ],
      "name": "setBeneficiary",
      "outputs": [],
      "stateMutability": "nonpayable",
      "type": "function"
    },
    {
      "inputs": [],
      "name": "myDonationsCount",
      "outputs": [
        {
          "internalType": "uint256",
          "name": "",
          "type": "uint256"
        }
      ],
      "stateMutability": "view",
      "type": "function"
    },
    {
      "inputs": [],
      "name": "donate",
      "outputs": [],
      "stateMutability": "payable",
      "type": "function"
    },
    {
      "inputs": [],
      "name": "myDonations",
      "outputs": [
        {
          "internalType": "uint256[]",
          "name": "values",
          "type": "uint256[]"
        },
        {
          "internalType": "uint256[]",
          "name": "dates",
          "type": "uint256[]"
        }
      ],
      "stateMutability": "view",
      "type": "function"
    },
    {
      "inputs": [],
      "name": "withdraw",
      "outputs": [],
      "stateMutability": "nonpayable",
      "type": "function"
    }
  ],
  "bytecode": "0x60806040523480156200001157600080fd5b5060405162001974380380620019748339818101604052810190620000379190620004dc565b620000576200004b6200011960201b60201c565b6200012160201b60201c565b85600190805190602001906200006f929190620001e5565b50846002908051906020019062000088929190620001e5565b508360039080519060200190620000a1929190620001e5565b508260049080519060200190620000ba929190620001e5565b5081600560006101000a81548173ffffffffffffffffffffffffffffffffffffffff021916908373ffffffffffffffffffffffffffffffffffffffff1602179055506200010d816200012160201b60201c565b50505050505062000659565b600033905090565b60008060009054906101000a900473ffffffffffffffffffffffffffffffffffffffff169050816000806101000a81548173ffffffffffffffffffffffffffffffffffffffff021916908373ffffffffffffffffffffffffffffffffffffffff1602179055508173ffffffffffffffffffffffffffffffffffffffff168173ffffffffffffffffffffffffffffffffffffffff167f8be0079c531659141344cd1fd0a4f28419497f9722a3daafe3b4186f6b6457e060405160405180910390a35050565b828054620001f39062000623565b90600052602060002090601f01602090048101928262000217576000855562000263565b82601f106200023257805160ff191683800117855562000263565b8280016001018555821562000263579182015b828111156200026257825182559160200191906001019062000245565b5b50905062000272919062000276565b5090565b5b808211156200029157600081600090555060010162000277565b5090565b6000604051905090565b600080fd5b600080fd5b600080fd5b600080fd5b6000601f19601f8301169050919050565b7f4e487b7100000000000000000000000000000000000000000000000000000000600052604160045260246000fd5b620002fe82620002b3565b810181811067ffffffffffffffff8211171562000320576200031f620002c4565b5b80604052505050565b60006200033562000295565b9050620003438282620002f3565b919050565b600067ffffffffffffffff821115620003665762000365620002c4565b5b6200037182620002b3565b9050602081019050919050565b60005b838110156200039e57808201518184015260208101905062000381565b83811115620003ae576000848401525b50505050565b6000620003cb620003c58462000348565b62000329565b905082815260208101848484011115620003ea57620003e9620002ae565b5b620003f78482856200037e565b509392505050565b600082601f830112620004175762000416620002a9565b5b815162000429848260208601620003b4565b91505092915050565b600073ffffffffffffffffffffffffffffffffffffffff82169050919050565b60006200045f8262000432565b9050919050565b620004718162000452565b81146200047d57600080fd5b50565b600081519050620004918162000466565b92915050565b6000620004a48262000432565b9050919050565b620004b68162000497565b8114620004c257600080fd5b50565b600081519050620004d681620004ab565b92915050565b60008060008060008060c08789031215620004fc57620004fb6200029f565b5b600087015167ffffffffffffffff8111156200051d576200051c620002a4565b5b6200052b89828a01620003ff565b965050602087015167ffffffffffffffff8111156200054f576200054e620002a4565b5b6200055d89828a01620003ff565b955050604087015167ffffffffffffffff811115620005815762000580620002a4565b5b6200058f89828a01620003ff565b945050606087015167ffffffffffffffff811115620005b357620005b2620002a4565b5b620005c189828a01620003ff565b9350506080620005d489828a0162000480565b92505060a0620005e789828a01620004c5565b9150509295509295509295565b7f4e487b7100000000000000000000000000000000000000000000000000000000600052602260045260246000fd5b600060028204905060018216806200063c57607f821691505b60208210811415620006535762000652620005f4565b5b50919050565b61130b80620006696000396000f3fe6080604052600436106100ec5760003560e01c80635600f04f1161008a578063b90497e011610059578063b90497e0146102d6578063de2ed89314610301578063ed88c68e1461032c578063f2fde38b14610336576100ed565b80635600f04f1461023e578063715018a6146102695780637284e416146102805780638da5cb5b146102ab576100ed565b80631c31f710116100c65780631c31f710146101a85780631f522595146101d157806338af3eed146101fc5780633ccfd60b14610227576100ed565b80630180b97c1461012657806306fdde03146101515780631a57f7b41461017c576100ed565b5b6101023460065461035f90919063ffffffff16565b60068190555061011e600160075461035f90919063ffffffff16565b600781905550005b34801561013257600080fd5b5061013b610375565b6040516101489190610d30565b60405180910390f35b34801561015d57600080fd5b506101666103bf565b6040516101739190610de4565b60405180910390f35b34801561018857600080fd5b5061019161044d565b60405161019f929190610ec4565b60405180910390f35b3480156101b457600080fd5b506101cf60048036038101906101ca9190610f5e565b6105c2565b005b3480156101dd57600080fd5b506101e6610682565b6040516101f39190610d30565b60405180910390f35b34801561020857600080fd5b50610211610688565b60405161021e9190610f9a565b60405180910390f35b34801561023357600080fd5b5061023c6106ae565b005b34801561024a57600080fd5b506102536107d2565b6040516102609190610de4565b60405180910390f35b34801561027557600080fd5b5061027e610860565b005b34801561028c57600080fd5b506102956108e8565b6040516102a29190610de4565b60405180910390f35b3480156102b757600080fd5b506102c0610976565b6040516102cd9190610fd6565b60405180910390f35b3480156102e257600080fd5b506102eb61099f565b6040516102f89190610de4565b60405180910390f35b34801561030d57600080fd5b50610316610a2d565b6040516103239190610d30565b60405180910390f35b610334610a33565b005b34801561034257600080fd5b5061035d6004803603810190610358919061101d565b610b53565b005b6000818361036d9190611079565b905092915050565b6000600860003373ffffffffffffffffffffffffffffffffffffffff1673ffffffffffffffffffffffffffffffffffffffff16815260200190815260200160002080549050905090565b600180546103cc906110fe565b80601f01602080910402602001604051908101604052809291908181526020018280546103f8906110fe565b80156104455780601f1061041a57610100808354040283529160200191610445565b820191906000526020600020905b81548152906001019060200180831161042857829003601f168201915b505050505081565b606080600061045a610375565b90508067ffffffffffffffff81111561047657610475611130565b5b6040519080825280602002602001820160405280156104a45781602001602082028036833780820191505090505b5092508067ffffffffffffffff8111156104c1576104c0611130565b5b6040519080825280602002602001820160405280156104ef5781602001602082028036833780820191505090505b50915060005b818110156105bc576000600860003373ffffffffffffffffffffffffffffffffffffffff1673ffffffffffffffffffffffffffffffffffffffff16815260200190815260200160002082815481106105505761054f61115f565b5b9060005260206000209060020201905080600001548583815181106105785761057761115f565b5b602002602001018181525050806001015484838151811061059c5761059b61115f565b5b6020026020010181815250505080806105b49061118e565b9150506104f5565b50509091565b6105ca610c4b565b73ffffffffffffffffffffffffffffffffffffffff166105e8610976565b73ffffffffffffffffffffffffffffffffffffffff161461063e576040517f08c379a000000000000000000000000000000000000000000000000000000000815260040161063590611223565b60405180910390fd5b80600560006101000a81548173ffffffffffffffffffffffffffffffffffffffff021916908373ffffffffffffffffffffffffffffffffffffffff16021790555050565b60075481565b600560009054906101000a900473ffffffffffffffffffffffffffffffffffffffff1681565b6106b6610c4b565b73ffffffffffffffffffffffffffffffffffffffff166106d4610976565b73ffffffffffffffffffffffffffffffffffffffff161461072a576040517f08c379a000000000000000000000000000000000000000000000000000000000815260040161072190611223565b60405180910390fd5b6000479050600560009054906101000a900473ffffffffffffffffffffffffffffffffffffffff1673ffffffffffffffffffffffffffffffffffffffff166108fc829081150290604051600060405180830381858888f19350505050158015610797573d6000803e3d6000fd5b507f5b6b431d4476a211bb7d41c20d1aab9ae2321deee0d20be3d9fc9b1093fa6e3d816040516107c79190610d30565b60405180910390a150565b600280546107df906110fe565b80601f016020809104026020016040519081016040528092919081815260200182805461080b906110fe565b80156108585780601f1061082d57610100808354040283529160200191610858565b820191906000526020600020905b81548152906001019060200180831161083b57829003601f168201915b505050505081565b610868610c4b565b73ffffffffffffffffffffffffffffffffffffffff16610886610976565b73ffffffffffffffffffffffffffffffffffffffff16146108dc576040517f08c379a00000000000000000000000000000000000000000000000000000000081526004016108d390611223565b60405180910390fd5b6108e66000610c53565b565b600480546108f5906110fe565b80601f0160208091040260200160405190810160405280929190818152602001828054610921906110fe565b801561096e5780601f106109435761010080835404028352916020019161096e565b820191906000526020600020905b81548152906001019060200180831161095157829003601f168201915b505050505081565b60008060009054906101000a900473ffffffffffffffffffffffffffffffffffffffff16905090565b600380546109ac906110fe565b80601f01602080910402602001604051908101604052809291908181526020018280546109d8906110fe565b8015610a255780601f106109fa57610100808354040283529160200191610a25565b820191906000526020600020905b815481529060010190602001808311610a0857829003601f168201915b505050505081565b60065481565b60006040518060400160405280348152602001428152509050600860003373ffffffffffffffffffffffffffffffffffffffff1673ffffffffffffffffffffffffffffffffffffffff16815260200190815260200160002081908060018154018082558091505060019003906000526020600020906002020160009091909190915060008201518160000155602082015181600101555050610ae03460065461035f90919063ffffffff16565b600681905550610afc600160075461035f90919063ffffffff16565b6007819055503373ffffffffffffffffffffffffffffffffffffffff167f264f630d9efa0d07053a31163641d9fcc0adafc9d9e76f1c37c2ce3a558d2c5234604051610b489190610d30565b60405180910390a250565b610b5b610c4b565b73ffffffffffffffffffffffffffffffffffffffff16610b79610976565b73ffffffffffffffffffffffffffffffffffffffff1614610bcf576040517f08c379a0000000000000000000000000000000000000000000000000000000008152600401610bc690611223565b60405180910390fd5b600073ffffffffffffffffffffffffffffffffffffffff168173ffffffffffffffffffffffffffffffffffffffff161415610c3f576040517f08c379a0000000000000000000000000000000000000000000000000000000008152600401610c36906112b5565b60405180910390fd5b610c4881610c53565b50565b600033905090565b60008060009054906101000a900473ffffffffffffffffffffffffffffffffffffffff169050816000806101000a81548173ffffffffffffffffffffffffffffffffffffffff021916908373ffffffffffffffffffffffffffffffffffffffff1602179055508173ffffffffffffffffffffffffffffffffffffffff168173ffffffffffffffffffffffffffffffffffffffff167f8be0079c531659141344cd1fd0a4f28419497f9722a3daafe3b4186f6b6457e060405160405180910390a35050565b6000819050919050565b610d2a81610d17565b82525050565b6000602082019050610d456000830184610d21565b92915050565b600081519050919050565b600082825260208201905092915050565b60005b83811015610d85578082015181840152602081019050610d6a565b83811115610d94576000848401525b50505050565b6000601f19601f8301169050919050565b6000610db682610d4b565b610dc08185610d56565b9350610dd0818560208601610d67565b610dd981610d9a565b840191505092915050565b60006020820190508181036000830152610dfe8184610dab565b905092915050565b600081519050919050565b600082825260208201905092915050565b6000819050602082019050919050565b610e3b81610d17565b82525050565b6000610e4d8383610e32565b60208301905092915050565b6000602082019050919050565b6000610e7182610e06565b610e7b8185610e11565b9350610e8683610e22565b8060005b83811015610eb7578151610e9e8882610e41565b9750610ea983610e59565b925050600181019050610e8a565b5085935050505092915050565b60006040820190508181036000830152610ede8185610e66565b90508181036020830152610ef28184610e66565b90509392505050565b600080fd5b600073ffffffffffffffffffffffffffffffffffffffff82169050919050565b6000610f2b82610f00565b9050919050565b610f3b81610f20565b8114610f4657600080fd5b50565b600081359050610f5881610f32565b92915050565b600060208284031215610f7457610f73610efb565b5b6000610f8284828501610f49565b91505092915050565b610f9481610f20565b82525050565b6000602082019050610faf6000830184610f8b565b92915050565b6000610fc082610f00565b9050919050565b610fd081610fb5565b82525050565b6000602082019050610feb6000830184610fc7565b92915050565b610ffa81610fb5565b811461100557600080fd5b50565b60008135905061101781610ff1565b92915050565b60006020828403121561103357611032610efb565b5b600061104184828501611008565b91505092915050565b7f4e487b7100000000000000000000000000000000000000000000000000000000600052601160045260246000fd5b600061108482610d17565b915061108f83610d17565b9250827fffffffffffffffffffffffffffffffffffffffffffffffffffffffffffffffff038211156110c4576110c361104a565b5b828201905092915050565b7f4e487b7100000000000000000000000000000000000000000000000000000000600052602260045260246000fd5b6000600282049050600182168061111657607f821691505b6020821081141561112a576111296110cf565b5b50919050565b7f4e487b7100000000000000000000000000000000000000000000000000000000600052604160045260246000fd5b7f4e487b7100000000000000000000000000000000000000000000000000000000600052603260045260246000fd5b600061119982610d17565b91507fffffffffffffffffffffffffffffffffffffffffffffffffffffffffffffffff8214156111cc576111cb61104a565b5b600182019050919050565b7f4f776e61626c653a2063616c6c6572206973206e6f7420746865206f776e6572600082015250565b600061120d602083610d56565b9150611218826111d7565b602082019050919050565b6000602082019050818103600083015261123c81611200565b9050919050565b7f4f776e61626c653a206e6577206f776e657220697320746865207a65726f206160008201527f6464726573730000000000000000000000000000000000000000000000000000602082015250565b600061129f602683610d56565b91506112aa82611243565b604082019050919050565b600060208201905081810360008301526112ce81611292565b905091905056fea26469706673582212201babe9d53c70632865b5bff9734fd1ee7595995744936b7551d52c015126da6364736f6c634300080c0033",
  "immutableReferences": {},
  "source": "pragma solidity >=0.4.21 <0.9.0;\n\nimport \"@openzeppelin/contracts/access/Ownable.sol\";\nimport \"@openzeppelin/contracts/utils/math/SafeMath.sol\";\n\n\n\ncontract Fundraiser is Ownable{\n\tusing SafeMath for uint256;\n\n\tstring public name;\n\tstring public url;\n\tstring public imageURL;\n\tstring public description;\n\taddress payable public beneficiary;\n\tuint256 public totalDonations;\n\tuint256 public donationsCount;\n\n\tstruct Donation{\n\t\tuint256 value;\n\t\t//uint256 conversionFactor;\n\t\tuint256 date;\n\t}\n\n\tmapping (address => Donation[]) private _donations;\n\n\tevent DonationReceived(address indexed donor, uint256 value);\n\tevent Withdraw(uint256 amount);\n\n\n\n\n\tconstructor(string memory _name, string memory _website,string memory _image,string memory _description, address payable _beneficiary, address _custodian) public {\n\t\tname = _name;\n\t\turl = _website;\n\t\timageURL = _image;\n\t\tdescription = _description;\n\t\tbeneficiary = _beneficiary;\n\t\t_transferOwnership(_custodian);\n\t}\n\n\n\tfunction setBeneficiary(address payable _beneficiary) public onlyOwner{\n\t\tbeneficiary = _beneficiary;\n\t}\n\n\tfunction myDonationsCount() public view returns(uint256){\n\t\treturn _donations[msg.sender].length;\n\t}\n\n\tfunction donate() public payable{\n\t\tDonation memory donation = Donation({value: msg.value, date: block.timestamp});\n\t\t_donations[msg.sender].push(donation);\n\t\ttotalDonations = totalDonations.add(msg.value);\n\t\tdonationsCount = donationsCount.add(1);\n\n\t\temit DonationReceived(msg.sender, msg.value);\n\t}\n\n\tfunction myDonations() public view returns (uint256[] memory values, uint256[] memory dates){\n\t\tuint count = myDonationsCount();\n\t\tvalues = new uint256[](count);\n\t\tdates = new uint256[](count);\n\t\tfor (uint256 i ;i<count; i++){\n\t\t\tDonation storage donation = _donations[msg.sender][i];\n\t\t\tvalues[i] = donation.value;\n\t\t\tdates[i] = donation.date;\n\t\t}\n\t\treturn (values,dates);\n\t}\n\n\tfunction withdraw() public onlyOwner{\n\t\tuint256 balance = address(this).balance;\n\t\tbeneficiary.transfer(balance);\n\t\temit Withdraw(balance);\n\t}\n\n\n\tfallback() external payable {\n\t\ttotalDonations = totalDonations.add(msg.value);\n\t\tdonationsCount = donationsCount.add(1);\n\t}\n}",
  "sourcePath": "/home/allouche/Documents/Economics and Personal Reads/Blockchain/Programming/Truffle_Projects/HandsOnBookProjects/fundraiser/contracts/Fundraiser.sol",
  "compiler": {
    "name": "solc",
    "version": "0.8.12+commit.f00d7308.Emscripten.clang"
  },
  "schemaVersion": "3.4.5",
  "updatedAt": "2022-03-10T07:35:36.438Z",
  "devdoc": {
    "kind": "dev",
    "methods": {
      "owner()": {
        "details": "Returns the address of the current owner."
      },
      "renounceOwnership()": {
        "details": "Leaves the contract without owner. It will not be possible to call `onlyOwner` functions anymore. Can only be called by the current owner. NOTE: Renouncing ownership will leave the contract without an owner, thereby removing any functionality that is only available to the owner."
      },
      "transferOwnership(address)": {
        "details": "Transfers ownership of the contract to a new account (`newOwner`). Can only be called by the current owner."
      }
    },
    "version": 1
  },
  "userdoc": {
    "kind": "user",
    "methods": {},
    "version": 1
  }
}